{
    "contractName": "UsersContract",
    "abi": [
        {
            "constant": false,
            "inputs": [
                {
                    "name": "name",
                    "type": "string"
                },
                {
                    "name": "surName",
                    "type": "string"
                }
            ],
            "name": "join",
            "outputs": [],
            "payable": false,
            "stateMutability": "nonpayable",
            "type": "function"
        },
        {
            "constant": true,
            "inputs": [
                {
                    "name": "addr",
                    "type": "address"
                }
            ],
            "name": "getUser",
            "outputs": [
                {
                    "name": "",
                    "type": "string"
                },
                {
                    "name": "",
                    "type": "string"
                }
            ],
            "payable": false,
            "stateMutability": "view",
            "type": "function"
        },
        {
            "constant": true,
            "inputs": [],
            "name": "totalUsers",
            "outputs": [
                {
                    "name": "",
                    "type": "uint256"
                }
            ],
            "payable": false,
            "stateMutability": "view",
            "type": "function"
        }
    ],
    "bytecode": "608060405234801561001057600080fd5b5061057f806100206000396000f3006080604052600436106100565763ffffffff7c010000000000000000000000000000000000000000000000000000000060003504166329803b21811461005b5780636f77926b146100f4578063bff1f9e114610200575b600080fd5b34801561006757600080fd5b506040805160206004803580820135601f81018490048402850184019095528484526100f294369492936024939284019190819084018382808284375050604080516020601f89358b018035918201839004830284018301909452808352979a9998810197919650918201945092508291508401838280828437509497506102279650505050505050565b005b34801561010057600080fd5b5061012273ffffffffffffffffffffffffffffffffffffffff600435166102e2565b604051808060200180602001838103835285818151815260200191508051906020019080838360005b8381101561016357818101518382015260200161014b565b50505050905090810190601f1680156101905780820380516001836020036101000a031916815260200191505b50838103825284518152845160209182019186019080838360005b838110156101c35781810151838201526020016101ab565b50505050905090810190601f1680156101f05780820380516001836020036101000a031916815260200191505b5094505050505060405180910390f35b34801561020c57600080fd5b50610215610472565b60408051918252519081900360200190f35b600061023233610479565b1561023c57600080fd5b50336000908152602081815260409091208351909161025f9183918601906104a4565b50815161027590600183019060208501906104a4565b50503360008181526001602081905260408220805460ff1916821790556002805491820181559091527f405787fa12a823e0f2b7631cc41b3ba8828b3321ca811111fa75cd3aa3bb5ace01805473ffffffffffffffffffffffffffffffffffffffff191690911790555050565b6060806102ed610522565b6102f633610479565b151561030157600080fd5b73ffffffffffffffffffffffffffffffffffffffff8416600090815260208181526040918290208251815460026001821615610100026000190190911604601f81018490049093028101606090810185529381018381529093919284928491908401828280156103b25780601f10610387576101008083540402835291602001916103b2565b820191906000526020600020905b81548152906001019060200180831161039557829003601f168201915b50505050508152602001600182018054600181600116156101000203166002900480601f0160208091040260200160405190810160405280929190818152602001828054600181600116156101000203166002900480156104545780601f1061042957610100808354040283529160200191610454565b820191906000526020600020905b81548152906001019060200180831161043757829003601f168201915b50505091909252505081516020909201519196919550909350505050565b6002545b90565b73ffffffffffffffffffffffffffffffffffffffff1660009081526001602052604090205460ff1690565b828054600181600116156101000203166002900490600052602060002090601f016020900481019282601f106104e557805160ff1916838001178555610512565b82800160010185558215610512579182015b828111156105125782518255916020019190600101906104f7565b5061051e929150610539565b5090565b604080518082019091526060808252602082015290565b61047691905b8082111561051e576000815560010161053f5600a165627a7a72305820bdf90ac5b17e8089148f7dc93630ea7f3620ce70702988cacec40ef60cd6e1d60029",
    "sourcePath": "/Users/robinbeltran/cursos/conviertete-en-desarrollador-blockchain-con-ethereum/ethereum-training/compile-and-deploy/contracts/UsersContract.sol",
    "compiler": {
        "name": "solc",
        "version": "0.4.24+commit.e67f0147"
    },
    "functionHashes": {
        "getUser(address)": "6f77926b",
        "join(string,string)": "29803b21",
        "totalUsers()": "bff1f9e1"
    },
    "gasEstimates": {
        "creation": {
            "codeDepositCost": "281400",
            "executionCost": "318",
            "totalCost": "281718"
        },
        "external": {
            "getUser(address)": "infinite",
            "join(string,string)": "infinite",
            "totalUsers()": "429"
        },
        "internal": {
            "userJoined(address)": "299"
        }
    }
}